:0A00000002272B1225AB1223F02279
:0D000B00022A0A122DCA7E027F64022F3ADB
:03001B00021105CA
:03002300022D4A61
:03002B00022F6A37
:03003B000230D2BE
:03004B000229A3E4
:03005300021CA1EB
:03006300022B2746
:10007300021E38020437E86480F8E933E83360117C
:100083000460F0ED33EC337009E8FCE9FDEAFEEBC4
:10009300FF220460DED3EB9FEA9EE99DE8C2E78C72
:1000A300F0C2F795F0400CE8CCF8E9CDF9EACEFAC6
:1000B300EBCFFB12040285D0F05804700320D5B3B4
:1000C300E80470075002B2D502044192D5EC0460F3
:1000D300F7E4CCC0E0C398F8603B94186008400D87
:1000E300D0E0FB020419E4FBFAC9FC8028E830E401
:1000F30006E4C9FBE4CAFCE830E305E4C9CACBFC67
:10010300E854076010F8C3E913F9EA13FAEB13FB99
:10011300EC13FCD8F130F52FC3E49CFCEF9BFFEE0E
:100123009AFEED99FDD0E0FBEF4E4D4C701222DBB1
:100133000302043EEC2CFCEF33FFEE33FEED33FD04
:10014300ED30E7EB020419EF2BFFEE3AFEED39FD3C
:10015300D0E0FB50130BBB0003020441ED13FDEE93
:1001630013FEEF13FFEC13FC020419EC4D6011E8CE
:10017300497017ED33EC3304600DE4FCFFFEFD2200
:10018300E933E8330470F8020437120402580460B8
:1001930009E4CC2481500628500902044128400375
:1001A30002043EC0E0EB4A7044B98006D0E0FB0293
:1001B300042DEF4E701CBD8008EBFFEAFEE9FD80C5
:1001C300EBE98DF0A4FEE5F0020257E9CDF9EAFE72
:1001D300EBFFEF89F0A4FCE5F0CE89F0A42EFFE459
:1001E30035F0CD89F0A42DFEE435F08067EF4E7035
:1001F30005BD80D780C3EF8BF0A4ACF0EE8BF0A4E9
:100203002CFCE435F0F8EF8AF0A42CE5F038FCE49C
:1002130033CB8DF0A42CFCE5F03BF8EE8AF0A42C54
:10022300FCE5F038F8E433CF89F0A42CFCE5F03892
:10023300CF3400CE89F0A42FFFE5F03EFEE433C9AE
:100243008DF0A42EFEE5F039CD8AF0A42FFFE5F062
:100253003EFEE43DFD33D0E0FB50070BBB000F0235
:100263000441EC2CFCEF33FFEE33FEED33FD0204CF
:1002730019020441EC5D046005E8590470030204AB
:1002830037120402580460F6EC4860F2EC7004FD87
:10029300FEFF22C860DB2481C85009C39860025066
:1002A3000602043E9850CAF582E9294B4A7005AB11
:1002B3008202042D75F0007C1A7880C3EF9BEE9ABE
:1002C300ED99400DC3EF9BFFEE9AFEED99FDE842D9
:1002D300F0DC23ACF0D0E0FFD0E0FED0E0FDAB8259
:1002E30020E7101BEB60BAEC2CFCEF33FFEE33FE80
:1002F300ED33FD020419E803F830E705C0F075F0AB
:1003030000EF2FFFEE33FEED33FD40B830E7C28040
:10031300AA74F8CC6480CCC86480C8F58204604FAA
:10032300C3EB9FF5F0EA9E42F0E99D42F0E89C455D
:10033300F0603C501DE5825FFFE582D313CB5BCBBE
:10034300F42B5582FB50280ABA002409B90020086F
:10035300801DE5825BFBE582D313CF5FCFF4C3132C
:100363002F5582FF50090EBE00050DBD00010CC3C1
:10037300EB9FF5F0EA9E42F0E99D42F0E89C45F0E0
:100383006007CC4820E701B3EC2275F020800E759E
:10039300F010800575F0087D007E007F003392D554
:1003A30030D5031206D2EC334010EF33FFEE33FEA9
:1003B300ED33FDEC33FCD5F0ED22E5F0247EA2D540
:1003C30013CC92E7CDCEFF22EDD2E7CD33EC3392BF
:1003D300D524814006E4FFFEFDFC22FCE4CFCECD14
:1003E300CC24E0501174FF80EDC3CC13CCCD13CDDE
:1003F300CE13CECF13CF0470F030D5DE0206D2E990
:10040300D2E7C933E833F892D5EDD2E7CD33EC33F5
:10041300FC5002B2D522EC30E7100FBF000C0EBE29
:1004230000080DBD00040BEB6014A2D5EB13FCED2B
:1004330092E7FD2274FFFCFDFEFF22E480F8A2D5C3
:1004430074FF13FC7D80E480EFE709F608DFFA8090
:1004530046E709F208DFFA803E88828C83E709F0D9
:10046300A3DFFA8032E309F608DFFA8078E309F2C2
:1004730008DFFA807088828C83E309F0A3DFFA80B7
:100483006489828A83E0A3F608DFFA805889828A26
:1004930083E0A3F208DFFA804C80D280FA80C68022
:1004A300D4806980F28033801080A680EA809A80AD
:1004B300A880DA80E280CA803389828A83ECFAE4F6
:1004C30093A3C8C582C8CCC583CCF0A3C8C582C8D2
:1004D300CCC583CCDFE9DEE7800D89828A83E49390
:1004E300A3F608DFF9ECFAA9F0EDFB2289828A83EF
:1004F300ECFAE0A3C8C582C8CCC583CCF0A3C8C5B9
:1005030082C8CCC583CCDFEADEE880DB89828A83BC
:10051300E493A3F208DFF980CC88F0EF60010E4E7C
:1005230060C388F0ED2402B4040050B9F582EB24D3
:1005330002B4040050AF232345822390049C73BB71
:10054300010689828A83E0225002E722BBFE02E38E
:100553002289828A83E49322BB010CE58229F582F6
:10056300E5833AF583E0225006E92582F8E622BBCB
:10057300FE06E92582F8E222E58229F582E5833A3F
:10058300F583E49322F8BB010DE58229F582E58327
:100593003AF583E8F0225006E92582C8F622BBFE2D
:1005A30005E92582C8F222C5F0F8A3E028F0C5F0DA
:1005B300F8E582158270021583E038F022A3F8E093
:1005C300C5F025F0F0E582158270021583E0C83886
:1005D300F0E822BB010A89828A83E0F5F0A3E022D6
:1005E300500687F009E71922BBFE07E3F5F009E39C
:1005F300192289828A83E493F5F074019322BB0163
:1006030010E58229F582E5833AF583E0F5F0A3E06E
:10061300225009E92582F886F008E622BBFE0AE9A2
:100623002582F8E2F5F008E222E5832AF583E993CF
:10063300F5F0A3E99322BB010DC58229C582C583C9
:100643003AC5830205AA5011C58229F808E5F026A8
:10065300F618F5F0E58236F622BBFE11C58229F8BD
:1006630008E225F0F5F0F218E23582F222F8E5828D
:1006730029F582E5832AF58374019325F0F5F0E4E7
:10068300933822BB010A89828A83F0E5F0A3F02222
:100693005006F709A7F01922BBFE06F3E5F009F3AC
:1006A3001922F8BB0111E58229F582E5833AF58326
:1006B300E8F0E5F0A3F0225009E92582C8F608A680
:1006C300F022BBFE09E92582C8F2E5F008F222C355
:1006D300E49FFFE49EFEE49DFDE49CFC22EB9FF57A
:1006E300F0EA9E42F0E99D42F0EC6480C864809891
:1006F30045F022EB9FF5F0EA9E42F0E99D42F0E8D7
:100703009C45F022E8600FECC313FCED13FDEE13E0
:10071300FEEF13FFD8F122E86010ECA2E713FCED23
:1007230013FDEE13FEEF13FFD8F022E8600FEFC3C3
:1007330033FFEE33FEED33FDEC33FCD8F122BB0186
:100743000789828A830208B25005E9F80208A6BB2A
:10075300FE05E9F80208BE89828A830208CABB0142
:100763000DE58229F582E5833AF5830208B2500745
:10077300E92582F80208A6BBFE07E92582F80208EC
:10078300BEE58229F582E5833AF5830208CABB01F7
:100793000789828A830207FF5005E9F8020910BB23
:1007A300FE05E9F802091C22BB010DE58229F58249
:1007B300E5833AF5830207FF5007E92582F802092A
:1007C30010BBFE07E92582F802091C22BB010DE5D7
:1007D3008229F582E5833AF5830208E75007E92584
:1007E30082F80208DABBFE07E92582F80208F3E57E
:1007F3008229F582E5833AF583020900ECF0A3ED43
:10080300F0A3EEF0A3EFF022A8828583F0D083D08B
:1008130082120822120822120822120822E473E428
:1008230093A3C583C5F0C583C8C582C8F0A3C58398
:10083300C5F0C583C8C582C822BB010789828A83E4
:1008430002080B5005E9F8020928BBFE05E9F80286
:10085300094122BB010DE58229F582E5833AF5833F
:1008630002080B5007E92582F8020928BBFE07E9B5
:100873002582F802094122EF4E6012EF60010EED6E
:10088300BB010B89828A83F0A3DFFCDEFA2289F0A5
:100893005007F709DFFCA9F022BBFEFCF309DFFCDC
:1008A300A9F022E6FC08E6FD08E6FE08E6FF22E0E2
:1008B300FCA3E0FDA3E0FEA3E0FF22E2FC08E2FDCF
:1008C30008E2FE08E2FF22E493FC740193FD740244
:1008D30093FE740393FF22E6FB08E6F908E6FA08A1
:1008E300E6CBF822E0F8A3E0F9A3E0FAA3E0FB22C9
:1008F300E2FB08E2F908E2FA08E2CBF822E493F813
:10090300740193F9740293FA740393FB22ECF608CF
:10091300EDF608EEF608EFF622ECF208EDF208EE3B
:10092300F208EFF222D083D082E493F608740193A5
:10093300F608740293F608740393F6740473D08371
:10094300D082E493F208740193F208740293F208DC
:10095300740393F274047390011FE0640160030253
:1009630011049000E8E024FE7003020ED024F97015
:1009730003020FC2240860030210E912307B9001C6
:1009830013E4F0A304F09000EAE024DE7003020E07
:100993009A24EF7003020EB62432B4080040030217
:1009A30010E99009B375F003A4C58325F0C58373DB
:1009B3000209CB0209FC020BDA020D800210E902E4
:1009C30010E90210E9020DAF9000ECE0B4050CA3AE
:1009D300E0B40507C2FFD2EC0210E99000ECE0643A
:1009E3000660030210E9A3E0640660030210E9D283
:1009F300EC43C901D2FF0210E99000EBE0FF12279C
:100A0300C59000EDE07D00FC9000ECE0C454F0FEE6
:100A1300ED2400FDEE3CFC9000EEE075F010A42DFB
:100A2300FFEC35F0FEA3E07C002FFFEC3E9000C806
:100A3300F0A3EFF0E49001E2F090003FF090004665
:100A430004F0E4900038F09000F0E06403600302E7
:100A53000B27A3E064026003020B279000C8E0FEAB
:100A6300A3E0FFE4FD9001E5E0F8A3E0F9A3E0FAD9
:100A7300A3E02FFFEA3EFEED39FDEC38FCA3E0F8DE
:100A8300A3E0F9A3E0FAA3E02FFFEA3EFEE93DFD70
:100A9300E83CFC9000B91207FF900187E0FCA3E05B
:100AA300FDA3E0FEA3E024ECFFEE34FFFEED34FFF4
:100AB300FDEC34FFFC9000B9E0F8A3E0F9A3E0FA01
:100AC300A3E0FBC31206E050209000B9E0FCA3E0D2
:100AD300FDA3E0FEA3E02400FFE43EFEED3401FDB0
:100AE300E43CFC9000B91207FF9000ECE0B403056E
:100AF30090015480169000ECE0B4070590015580F6
:100B03000A9000ECE0B40B099001567401F0021056
:100B1300E99000ECE0640F60030210E990015304D4
:100B2300F00210E99000F1E0640360030210E99021
:100B330000F0E0640260030210E99000C8E0FEA345
:100B4300E0FBE4C39BFFE49EFE74019400FDE49488
:100B530000FC1206D29001E5E0F8A3E0F9A3E0FA65
:100B6300A3E02FFFEA3EFEE93DFDE83CFCA3E0F8ED
:100B7300A3E0F9A3E0FAA3E02FFFEA3EFEE93DFD7F
:100B8300E83CFC9000B91207FF900187E0FCA3E06A
:100B9300FDA3E0FEA3E02414FFE43EFEE43DFDE4F8
:100BA3003CFC9000B9E0F8A3E0F9A3E0FAA3E0FB72
:100BB300D31206E050030210E99000B9E0FCA3E071
:100BC300FDA3E0FEA3E09400FFEE9400FEED94018C
:100BD300FDEC9400020DA59000EBE0FF1227C590F9
:100BE30000EDE0FFE4FCFDFE781812072EC004C000
:100BF30005C006C0079000ECE0FFE4FCFDFE781C96
:100C030012072ED003D002D001D000EF2BFFEE3A13
:100C1300FEED39FDEC38FCC004C005C006C00790EA
:100C230000EEE0FFE4FCFDFE781412072ED003D0A3
:100C330002D001D000EB2FFFEA3EFEE93DFDE83C88
:100C4300FCC004C005C006C007A3E0FFE4FCFDFE32
:100C5300781012072ED003D002D001D000EB2FFF63
:100C6300EA3EFEE93DFDE83CFCC004C005C006C009
:100C730007A3E0FFE4FCFDFE780C12072ED003D09F
:100C830002D001D000EB2FFFEA3EFEE93DFDE83C38
:100C9300FCC004C005C006C007A3E0FFE4FCFDFEE2
:100CA300780812072ED003D002D001D000EB2FFF1B
:100CB300EA3EFEE93DFDE83CFCC004C005C006C0B9
:100CC30007A3E0FFE4FCFDFE780412072ED003D057
:100CD30002D001D000EB2FFBEA3EFAE93DF9E83CF4
:100CE300F8A3E0FFE4FCFDFEEB2FFFEE3AFEED3947
:100CF300FDEC38FC9001431207FF9000F0E0B402D2
:100D03003AA3E0B40335900143E0FCA3E0FDA3E084
:100D1300FEA3E0FF7802120707AB07AA06A905A8FE
:100D230004900187E0FCA3E0FDA3E0FEA3E0C39BE6
:100D3300FFEE9AFEED99FDEC9880679000F1E06478
:100D43000260030210E99000F0E064036003021004
:100D5300E9900143E0FCA3E0FDA3E0FEA3E0FF78FC
:100D630002120707900187E0F8A3E0F9A3E0FAA3D2
:100D7300E02FFFEA3EFEE93DFDE83C80259001E9D6
:100D8300E0FCA3E0FDA3E0FEA3E0FF9001E5E0F8B3
:100D9300A3E0F9A3E0FAA3E02FFFEA3EFEE93DFD5D
:100DA300E83CFC9000B91207FF0210E99001E5E06E
:100DB300F8A3E0F9A3E0FAA3E0FB900187E0FCA32A
:100DC300E0FDA3E0FEA3E0C39BFFEE9AFEED99FDD9
:100DD300EC98FC9001E91207FF9001EDE0FCA3E021
:100DE300FDECFF3395E090014DEFF0A3EDF09001A2
:100DF300E9E0FCA3E0FDA3E0FEA3E0FF78181207FF
:100E03001A90014FEFF09001E9E0FCA3E0FDA3E0AD
:100E1300FEA3E0FF781012071A900150EFF0900143
:100E2300E9E0FCA3E0FDA3E0FEA3E0FF78081207DE
:100E33001A900151EFF09001E9A3A3A3E0900152AE
:100E4300F0C2AF7F007E3E122ED890014DE0FD7FB1
:100E5300007E3E122EA790014EE0FD7F017E3E12E2
:100E63002EA790014FE0FD7F027E3E122EA7900138
:100E730050E0FD7F037E3E122EA7900151E0FD7FDF
:100E8300047E3E122EA7900152E0FD7F057E3E12A6
:100E93002EA7D2AF0210E9900115E07004A3E0641D
:100EA300067010F50C9001247403F0900113E4F024
:100EB300A304F0900115E07004A3E064066003024C
:100EC30010E9750C0190012474030210E09000E90D
:100ED300E024B8603824E0604D14606414607B241F
:100EE300F27003020F7424F07003020F9924506010
:100EF300030210E99000FB7490F0A37450F0A37404
:100F030001F0E4A3F090012474050210E09000FBCB
:100F13007490F0A37450F0A37401F0E4A3F0900173
:100F23002474050210E09000FB7490F0A37450F059
:100F3300A37403F0A37433F090012474050210E04A
:100F43009000FB7490F0A37450F0A37402F0A374A8
:100F530020F090012474050210E09000FB7490F0DF
:100F6300A37450F0E4A3F0A3F090012474050210DD
:100F7300E09000FB7490F0A37450F0900271E06471
:100F8300099000FD60057405F080037404F090017E
:100F93002474040210E0E4783CF69000FB7490F0B3
:100FA300A37450F0900271E064099000FD60057431
:100FB30006F080037404F090012474040210E0909E
:100FC30000E9E024FA602A240260030210E9900099
:100FD300FB7490F0A37450F0900164E09000FD6006
:100FE300057402F080037403F0900124740402106A
:100FF300E09000EAE024EE60750460030210E990DB
:1010030001A9E0FEA3E0FFC3EE648094804006AC38
:1010130006AD07800AC3E49FFFE49EFEFCAD07EC28
:10102300120392E4FBFA79F0784212016E7B007AA4
:10103300FE79FF78461202777BFA7A7E79AA78BE28
:1010430012007D7B7D7A3F7955783F120277120338
:10105300CB9000C5EFF09000FB7490F0A37450F0B8
:10106300A37411F0A3EFF09001247405806F900135
:10107300E5A3A3E0FEA3E0FBAA06900187A3A3E0F8
:10108300FEA3E0C39BFBEE9AFA9001E9A3A3E0FE63
:10109300A3E0FFC3EB9FFFEA9E9000C8F0A3EFF02D
:1010A3009000FB7490F0A37450F09000C8E0FCEC47
:1010B300C4540F9000FDF0EC540FA3F09000C8A3AC
:1010C300E0FDECC4F854F0C8EDC4540F48540F903D
:1010D30000FFF0ED540FA3F09001247407F090018A
:1010E30013E4F0A304F0900113E07004A3E064019F
:1010F300700A122FEEE4900113F0A3F0E490011FA5
:10110300F022C0E0C0F0C083C082C0D075D000C060
:1011130000C001C002C003C004C005C006C00790E0
:101123004061E030E504E054DFF0904061E020E40A
:10113300030215F4900172E0FFA3E0A3CFF0A3EF45
:10114300F0900172E5ABF0A3E5AAF0900193E5AF4F
:10115300F0A3E5AEF0900174E0FEA3E0FFC39001BD
:1011630073E09FFF900172E09E90017AF0A3EFF08D
:1011730090003FE0701E9040CCE0FFA3E09000425F
:10118300CFF0A3EFF0904092E0FFA3E0900044CFB4
:10119300F0A3EFF0C390017AE0648094805028902C
:1011A3000174E0FEA3E0FF900173E09F900172E001
:1011B3009E400E90017EE024FFF090017DE034FF1D
:1011C300F09001A67401F0D390017BE094009001AC
:1011D3007AE0648094804027900174E0FEA3E0FFEE
:1011E300900173E09F900172E09E500E90017EE0AB
:1011F30004F0700690017DE004F09001A6E4F09005
:10120300017DE0FFA3E090024ACFF0A3EFF090014D
:1012130072E0FEA3E0FFE4FCFD90024AE0F8A3E0E5
:10122300F9A3E0FAA3E02FFFEA3EFEED39FDEC3827
:10123300FC9001871207FF90016EE0FCA3E0FDA381
:10124300E0FEA3E0FF780112072E900187E0F8A3E8
:10125300E0F9A3E0FAA3E0FBC3EF9BFFEE9AFEEDF8
:1012630099FDEC98FC90016AE0F8A3E0F9A3E0FA99
:10127300A3E0FBC3EF9BFFEE9AFEED99FDEC98FC18
:1012830090017F1207FF900193E0FEA3E0FFE4FCCF
:10129300FD7B16FAF9F8C31206F64009900193E4B0
:1012A300F0A37417F075C12075CA01900172E0FEB6
:1012B300A3E0FF8EC78FC675C30075C20BE5C120BF
:1012C300E7FB900196E5C5F0A3E5C4F075C1409036
:1012D300017CE004F0E064086003021479F09001FB
:1012E30072E0FEA3E0FF900176EEF0A3EFF0A3E03F
:1012F300FCA3E0FDC3EF9DFFEE9C9001D1F0A3EFB3
:10130300F09001D5E0F8A3E0F9A3E0FAA3E0FB90A5
:1013130001DDE025E024B1F582E43401F583E0FE4C
:10132300A3E0FFC39001D2E09FFF9001D1E09EFEB6
:101333003395E0FDFCEB2FFFEA3EFEE93DFDE83C83
:10134300FC9001D51207FF9001D1E0FEA3E0FF90CE
:1013530001DDE025E024B1F582E43401F583EEF00C
:10136300A3EFF09001DDE004F0E0C394044002E455
:10137300F09001D5E0FCA3E0FDA3E0FEA3E0FFA312
:101383001207FFE47FC8FEFDFC9001D9E0F8A3E05B
:10139300F9A3E0FAA3E0FBD31206E0400A9001D9D7
:1013A30012080B000000C874FF7F38FEFDFC90019B
:1013B300D9E0F8A3E0F9A3E0FAA3E0FBC31206E047
:1013C300500A9001D912080BFFFFFF3875C1207531
:1013D300CA019001D9E0FCA3E0FDA3E0FEA3E0FF76
:1013E300780112071A8EC78FC675C30175C277E5D8
:1013F300C120E7FB9001DEE5C5F0A3E5C4F075C1AC
:1014030040900176E0FFA3E0A3CFF0A3EFF075C116
:101413002075CA0675CB969001DEE0FEA3E0FF8E31
:10142300C78FC69001A9E0FEA3E0FF8EC58FC4A3BA
:10143300E0FEA3E0FF8EC38FC2E5C120E7FB90016E
:10144300A9E5C5F0A3E5C4F0A3E5C3F0A3E5C2F0A5
:1014530075C1409001A9E0FEA3E0FFC39402EE64CE
:101463008094805011EF94FEEE6480947F40079047
:1014730001A9E4F0A3F0900271E06407702C9000DE
:1014830038E0702630EA17900047E0701D9001960F
:10149300E0FFA3E09040CCCFF0A3EFF0800C9040AE
:1014A300CCE475F0051205AAD295C390003AE094F6
:1014B30088900039E09413403CE47FBC7E02FDFC3D
:1014C30090003BE0F8A3E0F9A3E0FAA3E0FBD3121A
:1014D30006E050217F447EFD7DFF7CFF90003BE0D2
:1014E300F8A3A3A3E0C31206E0400A9000387401F6
:1014F300F0900036F0900036E070030215A5B2922A
:10150300904092E4F0A3F09040A1E04401F0E04465
:1015130002F09040BA741FF0A374FFF09040B8E457
:10152300F0A3F09040CC75F0031205AA90405CC084
:1015330083C082E0FFA3E0443FD082D083CFF0A3F7
:10154300EFF0D2FFE47F50FEFDFC90003BE0F8A3F8
:10155300E0F9A3E0FAA3E0FBD31206E0504F74FFD7
:101563007FB0FEFDFC90003BE0F8A3A3A3E0C31211
:1015730006E04039900042E0FCA3E0FDEC12039248
:10158300E4FBFA793478431202777B007AFE79FF21
:10159300784612016E1203CB9040CCEEF0A3EFF02D
:1015A300800B9040A1E054FEF0E054FDF09040CC5D
:1015B300E0FFA3E0900264CFF0A3EFF09040CCE013
:1015C300FFA3E0900266CFF0A3EFF090002AE0FFC4
:1015D300A3E0900268CFF0A3EFF0900187A3A3E00C
:1015E300FFA3E090026ACFF0A3EFF090406174C2D2
:1015F300F0D007D006D005D004D003D002D001D05C
:1016030000D0D0D082D083D0F0D0E032900271E00D
:10161300640760030218DA900004E0FEA3E0FFEE23
:1016230060030218DAEF1460200460030218DA90F2
:101633000004E4F0A304F09040947413F0A3743313
:10164300F0A3E4F0A374A3F022900048E0C3940253
:101653005006E004F00216EC900187E0F8A3E0F9ED
:10166300A3E0FAA3E0FB9000B9E0FCA3E0FDA3E054
:10167300FEA3E0C39BFFEE9AFEED99FDEC98FC9070
:10168300009F1207FFE47F307E75FDFC90009FE012
:10169300F8A3E0F9A3E0FAA3E0FBD31206E0400AC3
:1016A30090009F12080B000075307FD07E8A7DFF6B
:1016B3007CFF90009FE0F8A3E0F9A3E0FAA3E0FB2E
:1016C300C31206E0500A90009F12080BFFFF8AD056
:1016D30090009FE0FCA3E0FDA3E0FEA3E0FF9000E9
:1016E3005F1207FFE4900048F090009FE0FCA3E046
:1016F300FDA3E0FEA3E0FF90003B1207FF7B007A0F
:101703000079721220C675C12075CA0675CB05789B
:1017130074E6FE08E68EC7F5C6787EE6FE08E68E1A
:10172300C5F5C408E6FE08E68EC3F5C2E5C120E7A9
:10173300FB787EA6C508A6C408A6C308A6C275C1C1
:1017430040787EE6FE08E6FFEE3395E0FDFC900070
:101753005FE0F8A3E0F9A3E0FAA3E0FBD31206E00D
:101763004013787EE6FE08E6FFEE3395E0FDFC903D
:10177300005F1207FF787EE6FE08E6FFC3E49FFFE3
:10178300E49EFE3395E0FDFC90005FE0F8A3E0F9F2
:10179300A3E0FAA3E0FBC31206E05019787EE6FE4D
:1017A30008E6FFC3E49FFFE49EFE3395E0FDFC9053
:1017B300005F1207FF9001A9E0FEA3E0FBAA06EA7F
:1017C3003395E0F9F890005FE0FCA3E0FDA3E0FEB1
:1017D300A3E0C39BFFEE9AFEED99FDEC98FC90000D
:1017E300871207FFE47F307E75FDFC900087E0F8E9
:1017F300A3E0F9A3E0FAA3E0FBD31206E0400A90CA
:10180300008712080B000075307FD07E8A7DFF7C35
:10181300FF900087E0F8A3E0F9A3E0FAA3E0FBC39D
:101823001206E0500A90008712080BFFFF8AD0745B
:10183300FF7FBAFEFDFC900087E0F8A3E0F9A3E088
:10184300FAA3E0FBC31206E04042E47F46FEFDFC40
:10185300900087E0F8A3A3A3E0D31206E0502D90F5
:1018630001F6E004F070069001F5E004F0C3900186
:10187300F6E094AC9001F5E0940D402BE4F0A3F076
:1018830090008712080B00000000801BD39001F624
:10189300E094009001F5E09400400CA3E024FFF0F5
:1018A3009001F5E034FFF0900087A3A3E0FEA3E0EE
:1018B300FF1230E990000CEEF0A3EFF0900038E057
:1018C300701590000CE0FEA3E0FFC3E49FFFE49ECD
:1018D300904092F0A3EFF022900271E014604F2445
:1018E300FC700302198B147003021AB01470030204
:1018F3001AB3147003021ABE147003021AE724FE0B
:101903007003021ACF240B6003021AF2122E719095
:101913000240E064016003021AF2E50C6401600313
:10192300021AF290027104F0E4900240F0221230A5
:101933003930EA431224D3E4FFFEFDFC900055E066
:10194300F8A3E0F9A3E0FAA3E0FBD31206F65003F1
:10195300021AF2E47FFF7E7FFDFC900055E0F8A3BE
:10196300A3A3E01206F64003021AF2900271740672
:10197300F0E4F5ABF5AA229002717405F090002211
:101983007407F0A374D0F022122A6FC2A8E4F5AB57
:10199300F5AA900022E07002A3E06003021AF2901D
:1019A3000012F0A3F01224D3900049E0FCA3E0FD61
:1019B300E4120392C004C005C006C00790004DE0C6
:1019C300FCA3E0FDE4120392A804A905AA06AB0751
:1019D300D007D006D005D0041202777B007AFE79B7
:1019E300FF784612016E1203CBEE3395E0FDFC90B7
:1019F30000551207FF900055E0FCA3E0FDA3E0FEB5
:101A0300A3E0FFE412038D7B007AFE79FF78461290
:101A1300027790026C1207FF7F007E107D807C4569
:101A230090026CE0F8A3E0F9A3E0FAA3E0FB120153
:101A33006EE4FBFA798078BF12007D7B007AF0793F
:101A43007F7845120277E4FBFA79B4784312016E8A
:101A53009002721207FFE4FBFA79B47843900272A2
:101A6300E0FCA3E0FDA3E0FEA3E0FF1202777B000E
:101A73007AFE79FF784612016E1203CB9040CCE0D8
:101A8300FCA3E02FFFEC3E900028F0A3EFF09000C2
:101A9300277401F0E4900012F0A3F0900271740631
:101AA300F0E4F5ABF5AA900172F0A3F022021AF369
:101AB300E50C703B9002717408F022E50C7004C2CF
:101AC300FF0022E50C6401702602309C900022E0A6
:101AD3007002A3E07019900271F0C2FF904062E0BF
:101AE30054DFF022783CE66002002212309C002290
:101AF300900270E030E403021CA0E04410F01222D4
:101B0300FE90405CC083C082E0FFA3E0443FD082EC
:101B1300D083CFF0A3EFF0D2FF20EA03021C48905A
:101B230001EDE0FEA3E0FFEE3395E0FDFC12038D33
:101B3300E4FBFA79B4784312016E7B007AFE79FFF5
:101B430078461202771203CB90002AEEF0A3EFF04F
:101B5300900055E0FCA3E0FDA3E0FEA3E0FFE41248
:101B6300038D7B007AFE79FF784612027790025547
:101B73001207FF7F007E107D807C45900255E0F8C0
:101B8300A3E0F9A3E0FAA3E0FB12016EE4FBFA7908
:101B93008078BF12007D7B007AF0797F784512024E
:101BA30077E4FBFA79B4784312016EC004C005C030
:101BB30006C00790002AE0FCA3E0FDEC120392A804
:101BC30004A905AA06AB07D007D006D005D0041296
:101BD30000799002591207FFE4FBFA79B478439035
:101BE3000259E0FCA3E0FDA3E0FEA3E0FF120277AD
:101BF300E4FBFA7980784712016E1203CB1206D206
:101C0300EC12038DE4FBFA79307841120277120368
:101C1300CB8EAB8FAAE4FBFA79347843900259E078
:101C2300FCA3E0FDA3E0FEA3E0FF1202777B007AB2
:101C3300FE79FF784612016E1203CB9040CCEEF092
:101C4300A3EFF0800BE4F5ABF5AA9040CCF0A3F042
:101C53009040A1E054FEF0E054FDF0904090E4F099
:101C6300A3F0A3F0A3F0A37413F0A37433F0A3E4DD
:101C7300F0A374A3F09040AAE4F0A3F09040A8F07E
:101C8300A3F09040ACF09040A0E054BFF0E054DFEC
:101C9300F0E054EFF0D2059002717407F022C0E037
:101CA300C0F0C083C082C0D075D000C000C001C0E6
:101CB30002C003C004C005C006C007904061E02015
:101CC300E703021E1D9001F4E004F070069001F397
:101CD300E004F0904039E04440F0900133E0B40177
:101CE3003390025DE004F09001F7E0FF90025DE0C5
:101CF300B50721E4F090012BE0FCA3E0FDA3E0FE97
:101D0300A3E02401FFE43EFEE43DFDE43CFC90013E
:101D13002B1207FFD390003AE09410900039E0941F
:101D230027500CA3E004F07006900039E004F01291
:101D3300160F75C12075CA0675CB6490031CE0FEAF
:101D4300A3E08EC7F5C6900000E0FEA3E0FF8EC5BA
:101D53008FC4A3E0FEA3E0FF8EC38FC2E5C120E7DB
:101D6300FB900000E5C5F0A3E5C4F0A3E5C3F0A331
:101D7300E5C2F075C14090031CE0FFA3E0900000B2
:101D8300CFF0A3EFF0120003B280D3900023E094CE
:101D930000900022E09400400CA3E024FFF09000A8
:101DA30022E034FFF0900026E07027900025E00445
:101DB300F07006900024E004F0D3900025E094C86E
:101DC300900024E09400400A9001E2E4F0900026A1
:101DD30004F020EA3F900027E064017037F0A3E0AD
:101DE300FCA3E0FDECFF3395E0900262EFF0A3ED7E
:101DF300F0C2AF7F007E3E122ED8900262E0FD7FDC
:101E0300007E3E122EA7900263E0FD7F017E3E120C
:101E13002EA7D2AF9040617452F0D007D006D00500
:101E2300D004D003D002D001D000D0D0D082D08350
:101E3300D0F0D0E032C0E0C0F0C083C082C0D07523
:101E4300D000C000C001C002C003C004C005C0066A
:101E5300C007900254E4F0E58A30E13C538AFD90D8
:101E63000124E024FFFFE434FFFEC3900123E09F3D
:101E7300900122E09E5021A3E004F070069001221D
:101E8300E004F0900122E0FEA3E024FBF58274005D
:101E93003EF583E0FF12311DE58A20E003021F7047
:101EA300538AFE900254E589F0900129E0146032D0
:101EB300046003021F61900254E0FF648160030227
:101EC3001F7090011175F0011205C0FC74E725F035
:101ED300F58274003CF583EFF09001297401F00260
:101EE3001F70900254E0FF900111E475F001120598
:101EF300C0FC74E725F0F58274003CF583EFF0C372
:101F0300900112E09414900111E09400400CE4F06D
:101F1300A3F090011FF0900129F0EFF4704F9001AE
:101F230011E0FEA3E0FFC39404EE9400401CD3EF42
:101F3300940FEE94005013900111E4F0A3F090017C
:101F43001F04F0900129E4F08023900111E4F0A331
:101F5300F090011FF0900129F012305A800F900188
:101F630011E4F0A3F090011FF0900129F0D007D005
:101F730006D005D004D003D002D001D000D0D0D0F9
:101F830082D083D0F0D0E032900240E060030220A0
:101F9300C5904039E04440F0904039E020E6F990A4
:101FA300022EE0F8A3E0F9A3E0FAA3E0FB9003001C
:101FB300E0547FFEA3E054F8FFE4FCFDEB2FFFEABF
:101FC3003EFEED39FDEC38FC90022E1207FF900225
:101FD3002EE0FCA3E0FDA3E0FEA3E0FF78041207DC
:101FE3001A90022CEEF0A3EFF0A3E0FCA3E0FDA314
:101FF300E0FEA3E0FFC006C00790022CE0FEA3E0D2
:10200300FBAA06EA3395E0F9F8D007D006C3EF9BA5
:10201300FFEE9AFEED99FDEC98FCA31207FF9002E8
:1020230034E0F8A3E0F9A3E0FAA3E0FB900302E0B5
:10203300547FFEA3E054F8FFE4FCFDEB2FFFEA3EE0
:10204300FEED39FDEC38FC9002341207FF900234A8
:10205300E0FCA3E0FDA3E0FEA3E0FF780412071A6F
:10206300900232EEF0A3EFF0A3E0FCA3E0FDA3E0C7
:10207300FEA3E0FFC006C007900232E0FEA3E0FB30
:10208300AA06EA3395E0F9F8D007D006C3EF9BFF21
:10209300EE9AFEED99FDEC98FCA31207FF90023F28
:1020A300E004F0700690023EE004F0D390023FE0BB
:1020B30094E890023EE0648094834006900240746A
:1020C30001F022900251EBF0A3EAF0A3E9F09002B1
:1020D30051E0FBA3E0FAA3E0F990000874FFF5F0E8
:1020E300120639C36480948040030221F290000AEF
:1020F300120601FF900008E5F08FF01206A590008C
:1021030002120601FFAEF01205D6FDC3EF9DE5F006
:102113006480F8EE6480985057900251E0FBA3E08E
:10212300FAA3E0F9900004120601FFAEF09000025A
:102133001206012FFFE5F03EFE1205D6FDACF0C3FB
:10214300EF9DEC6480F8EE648098501190000412C7
:102153000601FF900002E5F08FF00206399002516C
:10216300E0FBA3E0FAA3E0F9900002EC8DF0807CA1
:10217300900251E0FBA3E0FAA3E0F99000061206F7
:1021830001FFAEF0900002120601C39FFFE5F09E2F
:10219300FE1205D6FDD3EF9DE5F06480F8EE648072
:1021A300989002514033A3A3E02402F9E43AFAC021
:1021B30002C0011205D6FFAEF0900251A3E0FAA3CC
:1021C300E0F9900006120601FDC3EF9DFFEE95F0C6
:1021D300D001D0028FF0020686E0FBA3E0FAA3E071
:1021E300F91205D6FF900002E5F08FF01206A52242
:1021F300E4900270F090022E12080B00003FFF9053
:10220300023412080B00003FFF90023A12080B0041
:10221300003FFF90024212080B000B719990019846
:10222300E4F0A3740BF0A37471F0A37499F0E49039
:102233000164F0903E0093900246F0903E01E493D7
:10224300FF900247E02FF0900246E0FEA3E0FDED91
:10225300FF9001EDEEF0A3EFF0903E02E4939002C5
:1022630046F0903E03E493FF900247E02FF0903E48
:1022730004E493FF900248E02FF0903E05E493FFBF
:10228300900249E02FF0900247E07E007810C333BC
:10229300CE33CED8F9FFEE3395E0FDFCC004C00584
:1022A300C006C007900246E07E007818C333CE33E1
:1022B300CED8F9FFEE3395E0FDFCD003D002D00178
:1022C300D000EF4BFFEE4AFEED49FDEC48FCA804BD
:1022D300A905AA06AB07900248E0FE3395E0FDFC92
:1022E300EA4EFAE94DF9E84CF8A3E0FFEB4FFFEAB9
:1022F300FEE9FDE8FC9001E90207FF904062E0542B
:10230300DFF0E04420F090409FE04402F0E054DF2F
:10231300F0E04410F0A3E4F0A3F0904090F0A3F0B9
:10232300A3F0A3F09040AAF0A3F09040A8F0A3F08C
:102333009040ACF09040AEF0A3F09040AD7404F048
:102343009040B0743FF0A374FFF0A374C0F0A37483
:1023530001F0A37479F0A37498F0A37486F0A374C6
:1023630068F090407CE4F0A374BCF09040A3E4F0E8
:102373009040A0E04401F090409FE04408F090407A
:1023830062E04440F09040A0E054F34404F09040F5
:10239300A2E4F09040A57482F09040A47426F05318
:1023A300D69F9040A1E054DFF0E054EFF09002405C
:1023B300E0640170309040A1E054F34404F09002D3
:1023C3002CE0FFA3E09040A6CFF0A3EFF09040A154
:1023D300E054F34408F0900232E0FFA3E09040A6FB
:1023E300CFF0A3EFF0904062E04408F02290008B1E
:1023F300E06003022484900000E0FEA3E0FFD39496
:1024030003EE943F4026783506E618700106D3782C
:1024130035E6940A18E694004025E4F608F69000A1
:102423008B7404F09002717409F08013D37835E64D
:10243300940018E69400400708E61618700116C3C6
:10244300EF94A1EE94175026783706E6187001062C
:10245300D37837E6940A18E694004025E4F608F6A4
:1024630090008B7403F09002717409F08013D37899
:1024730037E6940018E69400400708E61618700142
:1024830016900271E06409704690008BE0FF6403CC
:102493006004EFB40439900000E0FEA3E0FFC394AE
:1024A3000BEE943D5023EF9499EE9419401B783929
:1024B30006E618700106D37839E6942818E69400E6
:1024C300400DE490008BF08003E47838F608F622A0
:1024D30090005BE07004A3E0640160030225AA900E
:1024E3000051E0FEA3E0FFC390004AE090004912D0
:1024F3002E3BE47BFFFAF9F8D31206F650030225CC
:102503008590004DE0FEA3E0FF900054E09000535F
:10251300122E3BE4F8D31206F64067900049E0130D
:10252300FFA3E013A3CFF0A3EFF0A3E0FFA3E0A387
:10253300CFF0A3EFF0900049E0FCA3E0FDE4120329
:1025430092C004C005C006C00790004DE0FCA3E0A4
:10255300FDE4120392A804A905AA06AB07D007D08D
:1025630006D005D0041202777B007AFE79FF784605
:1025730012016E1203CBEE3395E0FDFC9000551271
:1025830007FFE490005BF0A3F0900049E0FFA3E0B5
:10259300900051CFF0A3EFF090004DE0FFA3E09047
:1025A3000053CFF0A3EFF022900271E0FF640760C5
:1025B30008EF640660030226759040DAE0FFA3E0AB
:1025C300900093CFF0A3EFF09040DCE0FFA3E09006
:1025D3000095CFF0A3EFF09040DEE0FFA3E0900082
:1025E30097CFF0A3EFF09040DAE0FFA3E0900093E1
:1025F300CFF0A3EFF09040DCE0FFA3E0900095CF95
:10260300F0A3EFF09040DEE0FFA3E0900097CFF05F
:10261300A3EFF09040DAE0FEA3E0C394EBEE648016
:102623009491501EA3E0FEA3E0C394EBEE64809468
:1026330091500FA3E0FEA3E0C394EBEE648094916A
:10264300402490008CE004F0E0C394034024783CE1
:102653007601E4900093F0A3F0A3F0A3F0A3F0A31A
:10266300F090008CF02290008CE0D394004003E0C3
:1026730014F0225C01F900000000000000000000DB
:102683000000000000000000000000000000000047
:1026930000004101F800010C004100480042005DC8
:1026A30000004802640000000000000000420262D3
:1026B300000044025E0000000044024600000000E7
:1026C3004102410046014D000000000000C100C16D
:1026D30081C1024401394208000044013D436A00BC
:1026E300004200CA0BE84200CE53644201412FA4CA
:1026F3004200E3519C4100C60042015900004200E0
:10270300CC000042013700004200C80000440143EE
:102713000000000042015B000042015D0000420036
:10272300E5000041014B000078FEE4F6D8FD90007F
:10273300007FFF7E03E4F0A3DFFCDEFA75818202F3
:102743002780022ACCE493A3F8E493A34003F68002
:1027530001F208DFF48029E493A3F85407240CC89A
:10276300C333C4540F4420C8834004F45680014645
:10277300F6DFE4800B0102040810204080902676E7
:10278300E47E019360BCA3FF543F30E509541FFE70
:10279300E493A360010ECF54C025E060A840B8E4E1
:1027A30093A3FAE493A3F8E493A3C8C582C8CAC564
:1027B30083CAF0A3C8C582C8CAC583CADFE9DEE7F6
:1027C30080BE900255EFF0C3949040057490F08062
:1027D3000B900255E0D394005002E4F0900255E0D0
:1027E300FCE41203977BE17A7A7954783F12016E05
:1027F3007BFA7A7E79AA783E12007D900147120710
:10280300FF900255E0900135F07876760008763C2B
:1028130008760008763CE4FBFA79F07842900147A9
:10282300E0FCA3E0FDA3E0FEA3E0FF1202777B0040
:102833007AFE79FF784612016E1203CB90001EEEEA
:10284300F0A3EFF07872A60608F6E408F608F67827
:102853007EF608F608F608F62290404CE04420F095
:10286300538A7F438A40538ADF538AF7538AFB5341
:102873008AFD538AFE438A10C2DDC2DC904042E4E3
:10288300F0A3749BF0904042C083C082E0547FFF6A
:10289300A3E0D082D083CFF0A3EFF0904042C08377
:1028A300C082E04440FFA3E0D082D083CFF0A3EF07
:1028B300F0904042C083C082E04420FFA3E0D08276
:1028C300D083CFF0A3EFF02290405E7407F0A3749F
:1028D300CFF0A37412F0904058E4F0A3F090405C62
:1028E300C083C082FFA3E0543FD082D083CFF0A344
:1028F300EFF053F880904061E054F7F0E054EFF0CC
:10290300E04402F0E054FEF090405AE4F0A374FA7D
:10291300F0D2BFC2BE904061E054FBF0A3E054DFAD
:10292300F0E04404F0E04480F0E054EFF0E04401D0
:10293300F0D2FF2290015FE064066031900187E0EE
:10294300FCA3E0FDA3E0FEA3E024B8FFEE340BFEFE
:10295300E43DFDE43CFC9000B91207FF750C0190C7
:1029630001E2E0B4013990015F7406F0229001E9BD
:10297300E0FCA3E0FDA3E0FEA3E0FF9001E5E0F8A7
:10298300A3E0F9A3E0FAA3E02FFFEA3EFEE93DFD51
:10299300E83CFC9000B91207FF9001647401F02237
:1029A300C0E0C083C082E59D30E703539D7FE59D72
:1029B30030E61F900049E5A5F0A3E5A4F090004D93
:1029C300E5A7F0A3E5A6F090005BE4F0A304F053C1
:1029D3009DBFE59D30E529E59090004930E10874FD
:1029E3000FF0A374A08003E4F0A3F090004D740FE4
:1029F300F0A374A0F090005BE4F0A304F0539DDF18
:102A0300D082D083D0E032C0E0C0F0C083C082C0A7
:102A1300D075D000C000C004C005C006C007900137
:102A2300E2E07031900026E0602B9001E27401F047
:102A33009001E5A3A3E0FFA3E09001E3CFF0A3EFB0
:102A4300F0900187E0FCA3E0FDA3E0FEA3E0FF908C
:102A530001E51207FFC28AD007D006D005D004D003
:102A630000D0D0D082D083D0F0D0E032900270E09A
:102A730020E255E04404F01222FE904090740AF0E4
:102A8300A3743DF0A3E4F0A3F0A37410F0A3E4F067
:102A9300A304F0A37447F09040CCE4F0A3F090407B
:102AA300CCE0FEA3E02400FFEE34F0A3F0A3EFF0AC
:102AB30090405CC083C082E0FFA3E0443FD082D05B
:102AC30083CFF0A3EFF0D2FF22E4FFFE0FBF00019C
:102AD3000EBE3AF8BF98F5122E051230FF12000E03
:102AE30012285C7F38122FC5D2AF7E007F097D008C
:102AF3007B017A00793F12087A9000467401F0F561
:102B03000C7F791227C5121F8B1218DB900164E02A
:102B13007006122B7E12293790015FE0B406E7128C
:102B2300095A80E2C0E0C0F0C083C082C0D075D033
:102B330000C000C001C002C003C004C005C006C07D
:102B430007E5D730E71A900271E06404600F123092
:102B53009C90008B7401F09002717409F053D77F3D
:102B6300D007D006D005D004D003D002D001D000C6
:102B7300D0D0D082D083D0F0D0E03290011FE06477
:102B830001704A9000E8E024FE70279000E9E024F9
:102B9300C8701F9000FB7490F0A37450F0A37401ED
:102BA300F0E4A3F09001247405F0900113E4F0A382
:102BB30004F0900113E07004A3E06401700A122F83
:102BC300EEE4900113F0A3F0E490011FF022904093
:102BD30052E04402F0E04401F0904051E04480F0C0
:102BE300904050E04440F0E04480F0A3E04401F022
:102BF300E04402F0E04404F0E04408F053FEF790B0
:102C0300404EE04401F0E04402F0E04404F0904020
:102C130034E054FBF0E054FDF0E054FEF02253FCAA
:102C2300FD904053E04402F043FC01E04401F053C3
:102C3300FDFDA3E04402F043FD04E04404F0C2922E
:102C430043E910904057E054EFF0D2EC43FD20905D
:102C53004054E04420F0C29553E9FB904057E044D0
:102C630004F053FF7F904056E0547FF0229002BC63
:102C73007423F0A37433F0A3E4F0A37420F0900260
:102C8300C8E4F0A3F0A3F0A3F09002C6F0A3F09081
:102C930002C4F0A3F09002CCF0A3F0A3F0A3F09051
:102CA30002C07416F0A374C8F0A374E9F0A37438D7
:102CB300F043F904E5F920E4FB22904051E044019C
:102CC300F0E04408F0E04410F0E04420F0E04480F9
:102CD300F0A3E04410F0904036C083C082E044404B
:102CE300FFA3E0449FD082D083CFF0A3EFF09040C6
:102CF30039E04420F0E04404F0E054FDF0E0448087
:102D0300F022904051E04480F053D6BF53D6DFE029
:102D13004440F043FE40904035E054BFF090404AB9
:102D2300E04480F090404B74F9F0904035E04480EB
:102D3300F043D60853D9FB53D9EF43D90843D902FB
:102D430043D90143D61022C0E0C083C082C0D0E57E
:102D5300A930E70353A97FE5A930E614900195E074
:102D630004F0E0C394034005E4F053A9EF53A9BF73
:102D7300E5A930E50C9001957401F043A91053A91E
:102D8300DFD0D0D082D083D0E032E490008BF0FE4D
:102D93007F2FFDFB7A00793212087A7E007F3F7D18
:102DA300007B017A00790012087A7E007F137D0090
:102DB3007B017A01795F12087A9002707401F0E462
:102DC300900022F0A3F022904031E054FEF09040B6
:102DD3004CE054BFF0A3E054FBF0904030E054CFFC
:102DE3004410F0A3E054F3F0904030E04440F0A3EB
:102DF300E0540FF0C2ABA3740AF0904031E04401F9
:102E0300F022122D05122C211230171228CB122F6B
:102E130098122F091230B8122CBD122BD112310F78
:102E2300904064742EF0A374E0F09001F77402F004
:102E3300904061E04440F0229FFFE09EFEE4FCFDF1
:102E43009002571207FF900257E0FCA3E0FDA3E0B6
:102E5300FEA3E0FFEC339002575007A3A3A3E002C5
:102E630006D2E0FCA3E0FDA3E0FEA3E0FF22900274
:102E730070E020E02EE04401F0904062E054DFF087
:102E8300C2FF904036C083C082E0FFA3E04417D066
:102E930082D083CFF0A3EFF0E4900240F090023EA3
:102EA300F0A3F0228F828E83A2AF9204C2AFC3EF4E
:102EB3009480EE943F500F75850175845A75841F75
:102EC30000EDF0758508A20492AFE5857F0030E43C
:102ED300037F0122228F828E83A2AF9204C2AFC3EB
:102EE300EF9480EE943F501075850375845A758472
:102EF3001F0074FFF0758508A20492AFE5857F017A
:102F030030E4027F002290404CE04408F0A3E054F8
:102F1300FEF0439C80539CBF439C20539CEF539CE7
:102F2300F7539CFD439D10439D08539DFB539DFD0B
:102F3300539CFE439D012290403BE0547FF0E044CC
:102F43002AF0EEC330E601D3400790403BE044044F
:102F5300F090403D7407F05E904040F0A3EFF09096
:102F6300403BE044C0F022C0E0C083C08290406E8A
:102F7300E030E404E054EFF090406EE030E104E030
:102F830054FDF090406EE030E004E054FEF0D08257
:102F9300D083D0E03290404CE04404F0E04402F0AF
:102FA30053A17F43A14043A12053A1EF53A1F75362
:102FB300A1FB43A90453A9FD43A10243A10143A9D2
:102FC3000122C20490403AE030E710D20490403A24
:102FD300E020E6F990403AE0547FF090403AE05424
:102FE300C74FF0300404E04480F0229000FB74905B
:102FF300F0A37450F0900124E024FAF582E4340045
:10300300F58374FFF0E4900122F0A3F09000FBE05D
:10301300FF02311D53FCF7904053E04408F053DBAB
:10302300DF43DB1043DB08C289C288D2BBD2BAD2EA
:10303300A8C28AD2AF22904036C083C082E0FFA3E9
:10304300E054ECD082D083CFF0A3EFF0122D8D901B
:103053004062E04480F0229000FB7490F0A374512E
:10306300F0A374FFF0E4900122F0A3F0A37403F043
:103073009000FBE0FF02311D9000FB7490F0A374FD
:1030830040F0A374FFF0E4900122F0A3F0A37403D3
:10309300F09000FBE0FF02311D90008BE06004C262
:1030A300FF0022200506E4900271F022D2FF900275
:1030B300717407F022904052E054DFF090404FE0EB
:1030C300547FF0E04440F090404FE04411F022C0C0
:1030D300E0E5D720E40AE5D720E505E5D730E603A8
:1030E30053D78FD0E0329002C6EEF0A3EFF043F94E
:1030F3000400000000A3E0FEA3E0FF221221F3126C
:103103002C70E4900271F090008BF02253D77F5320
:10311300D57F43D540D2D9D2D8228F89E58AC3300F
:08312300E101D350F7C299222B
:00000001FF
